:02000004080AE8
:1000000000000A08D4340A080000060006000501B2
:0800100004027E05000000005F
:04001800B8300A08EA
:10001C0009480A4908B5884205D0094A824202D0EB
:10002C00121A02F0E3FF0748074A0021121A02F0E5
:10003C00E8FF064808BD00BF0000002044340A0851
:10004C0068000020680000201C0600201C06002010
:10005C0070B501F053F8074B074C1E46E41AA40880
:10006C000025A54204D056F8253098470135F8E70D
:10007C0070BD00BFFC330A0838340A0800F014B80D
:10008C0008B500F033F9BDE8084000F0F9BF00F006
:10009C0069BD00F06FBD0078B0FA80F04009704780
:1000AC00012303707047704710B50E4C204600F0CA
:1000BC006FFB204600F084FA00221146204600F027
:1000CC00D1FA0949204600F051FE084800F063F9C6
:1000DC000121042001F00EFEBDE810400121052095
:1000EC0001F008BE84000020CC300A08700000200B
:1000FC002DE9F3410546354C88461746204601222A
:10010C00002100F0AFFA3249204600F02FFE012208
:10011C002046092100F0A6FA284602F039F90225FA
:10012C000B4602462B4E0095204600F023FF012281
:10013C0020460F2100F096FA3146204600F016FEBC
:10014C002A462046002100F08DFA2349204600F073
:10015C000DFE2A462046092100F084FA404602F0A2
:10016C0017F900950B460246204600F003FF2A467D
:10017C0020460F2100F076FA1849204600F0F6FDD3
:10018C0003222046002100F06DFA1549204600F0AC
:10019C00EDFD03222046092100F064FA384602F0F6
:1001AC00F7F800950B460246204600F0E3FE0322CA
:1001BC0020460F2100F056FA3146204600F0D6FDBD
:1001CC00642002B0BDE8F04100F0F8BE84000020CD
:1001DC00E0300A08EB300A08ED300A08F8300A085B
:1001EC00FC300A08014800F093B900BF70000020F1
:1001FC00014800F0B7B900BF7000002038B50C46BC
:10020C0005460146204602F0CFFE28B1002104200D
:10021C0001F081FD00210DE00949284602F008FC9F
:10022C000146204602F0ACFE48B10121042001F049
:10023C0072FD01210520BDE8384001F06CBD38BDD0
:10024C000000404038B5046805467CB16368013B4A
:10025C0063605BB9236820469B689847A368013BA1
:10026C00A3601BB923682046DB689847284638BD35
:10027C0070B588B00E4602F08BF8184D184C02463B
:10028C000B4604A8294600F023FD2378049A15494F
:10029C008DF8003002A83C2301F09EF803A8FFF76C
:1002AC00D1FF04A800F0BAFC304602F071F8024607
:1002BC000B4604A8294600F00BFD2378049A0A4942
:1002CC008DF8003002A83C2301F086F803A8FFF754
:1002DC00B9FF04A800F0A2FC08B070BD07310A08F1
:1002EC006C0000200C310A0818310A0870B54FF464
:1002FC00FA6000F063FEFFF775FF0546FFF778FF25
:10030C000446084E01463046FFF778FF2946204642
:10031C003246FFF7EDFE21462846BDE87040FFF758
:10032C00A7BF00BF0000484210B50446102101F0E1
:10033C007EFD204610BD000010B50E4B00241C7035
:10034C0000F02AFA214601200B4C00F077FB062323
:10035C0016220221094800F017F814222721204602
:10036C00042300F003F92046BDE81040044A054977
:10037C0001F058BD6C0000208400002070000020AB
:10038C0068000020B3000A0810B5037201238171C4
:10039C00C271037410BD10B504460021807901F0C0
:1003AC00A9FC0121A07901F0B6FC0023E36010BD8B
:1003BC002DE9F843044600F047FAE368834284BF12
:1003CC000023E360237C3BB9E368C01AB0F5FA6FF5
:1003DC0002D20120BDE8F8830025257400F034FA20
:1003EC000121E0602571A079E570A570657025701C
:1003FC0001F091FCFA2000F0E1FD0121A07901F05F
:10040C0079FC2946A07901F086FC142000F0D6FD79
:10041C0001F096FA0121A07901F07DFC282000F072
:10042C000BFA2946A07901F065FC2E4601274FF006
:10043C000008A07901F088FCB8425FFA88F908D16D
:10044C00012008F1010800F0F7F9B8F1FF0FF0D125
:10045C00C146A07901F078FCB9F1FF0FC7B214D0F6
:10046C00032D0ED9EB070CD4F208A35C01365B000C
:10047C00DBB2A354217AF6B249453CBF43F00103E9
:10048C00A3540135EDB2552DD1D101F05BFA272ED5
:10049C000AD92278637821791344A2781344E2783C
:1004AC001344DBB2994294D00020BDE8F8830000DD
:1004BC0070B50446FFF77CFF18B3E3790B2B04D01F
:1004CC001FD3153B012B04D91BE0A07802F062FB73
:1004DC0070BDA57805F07F0002F060FB4FF08741FE
:1004EC0002F0B0FB0646E07802F058FB314602F011
:1004FC00A1FA054902F05AFC2B0603D500F1004085
:10050C0070BD024870BD00BF000020410000C07FDC
:10051C00FFF7CEBF38B50446FFF74AFFE0B1E379E9
:10052C000B2B15D018D3153B012B15D8207802F0C6
:10053C0031FB4FF0874102F085FB0546607802F0F5
:10054C002DFB294602F076FA044902F02FFC38BD47
:10055C00207802F01FFB38BD014838BD0000204157
:10056C000000C07FFFF7D6BF00F016B970B5044E7F
:10057C00002545600660017242738373C57370BDBC
:10058C002C310A0838B504460D4601F02BFC217AB3
:10059C0001F0BCFA022000F04FF901F023FCE17BE2
:1005AC00036829439B689847022000F045F901F045
:1005BC0019FC01F0B3FABDE83840022000F03CB958
:1005CC000823C3730021FFF7DDBF38B505460C4681
:1005DC0041F00401FFF7D6FF012000F02DF9284669
:1005EC0004F0FB01FFF7CEFFBDE83840322000F0ED
:1005FC0023B938B504460D46FFF7C4FF29462046FB
:10060C00BDE83840FFF7E1BF70B50D46144606460D
:10061C0021F00F011143FFF7ECFF44EA05113046BE
:10062C00BDE87040C9B2FFF7E4BF08B50122FFF77F
:10063C00EBFF002008BD0022FFF7E6BF08B5012143
:10064C00FFF7F9FFBDE808404FF4FA6000F0F4B88A
:10065C0008B50221FFF7EFFFBDE808404FF4FA6040
:10066C0000F0EAB87FB5054614460E460C4B0DF16A
:10067C00100E0FCB0EE90F002B7B2846A3423CBF7C
:10068C0003F1FF34E4B204AB03EB840454F8101C04
:10069C00314461F07F01C9B2FFF7CDFF04B070BDEA
:1006AC003C310A0808B5817A41F00402827241F0AB
:1006BC000C01FFF7C0FF08BD10B5012A88BF417AB5
:1006CC00044684BF41F00801417202732BB1012A28
:1006DC0002BF437A43F004034372322000F06EFCF5
:1006EC00E17B2046FFF74EFF4FF47A7000F066FC7A
:1006FC0030212046FFF77DFF41F2941000F09CF86A
:10070C0030212046FFF775FF41F2941000F094F869
:10071C0030212046FFF76DFF962000F08DF8204623
:10072C002021FFF766FF617A204641F02001FFF798
:10073C0082FF0423A3722046FFF7B4FF2046FFF785
:10074C007DFF02232046E3720621FFF774FF20464B
:10075C00BDE81040FFF77CBF10B5044601F042FB2A
:10076C000A4901F0C5F901F03DFB012101F0C4F982
:10077C0001F038FB01F0C4F900236372A27B617BAA
:10078C002046BDE81040FFF797BF00BFA0860100D0
:10079C00FFF7E2BF00F000B808B5024B1B681B68FE
:1007AC00019308BDB001060808B5024B1B689B6895
:1007BC00019308BDB001060808B5024B1B68DB6845
:1007CC00019308BDB001060808B5024B1B681B69F4
:1007DC00019308BDB001060808B5024B1B685B69A4
:1007EC00019308BDB001060808B5024B1B681B6AD3
:1007FC00019308BDB001060808B5024B1B685B6A83
:10080C00019308BDB001060808B5024B1B68DB69F3
:10081C00019308BDB401060808B5024B1B681B6A9E
:10082C00019308BDB401060808B5024B1B685B6850
:10083C00019308BD9C01060808B5024B1B68DB68D8
:10084C00019308BD9C01060808B5024B1B685B6947
:10085C00019308BD9C01060808B5024B1B681B6B75
:10086C00019308BDD001060808B5024B1B689B69B3
:10087C00019308BDC401060808B5024B1B685B6AEE
:10088C00019308BDC401060808B5024B1B689B6A9E
:10089C00019308BDC401060808B5024B1B68DB6A4E
:1008AC00019308BDC401060808B5024B1B681B6BFD
:1008BC00019308BDC401060808B5024B1B685B6BAD
:1008CC00019308BDC401060808B5024B1B689B6B5D
:1008DC00019308BDC401060808B5024B1B681B6CCC
:1008EC00019308BDC401060808B5024B1B681B6CBC
:1008FC00019308BDAC01060808B5024B1B689B6C44
:10090C00019308BDAC01060808B5024B1B68DB6CF3
:10091C00019308BDAC01060808B5024B1B689B6D22
:10092C00019308BDAC01060808B5024B1B68DB6DD2
:10093C00019308BDAC01060808B5024B1B681B6E81
:10094C00019308BDAC01060808B5024B1B685B6E31
:10095C00019308BDAC01060808B5024B1B689B6EE1
:10096C00019308BDAC01060808B5024B1B68DB6E91
:10097C00019308BDAC01060808B5024B1B681B6F40
:10098C00019308BDAC01060808B5024B1B685B6FF0
:10099C00019308BDAC01060808B5034B1B68D3F8DE
:1009AC008030019308BD0000AC01060808B5024B6D
:1009BC001B681B68019308BDD801060808B5024BDB
:1009CC001B681B69019308BDD801060808B5024BCA
:1009DC001B685B69019308BDD801060808B5024B7A
:1009EC001B689B69019308BDD801060808B5024B2A
:1009FC001B68DB69019308BDD801060808B5024BDA
:100A0C001B681B6A019308BDD801060808B5024B88
:100A1C001B689B6C019308BDC001060808B5024B0E
:100A2C001B685B68019308BDA401060808B5024B5E
:100A3C001B685B69019308BDA401060808B5024B4D
:100A4C001B68DB6A019308BDA401060808B5024BBC
:100A5C001B68DB6C019308BDA401060808B5024BAA
:100A6C001B685B6D019308BDA401060808B5034B18
:100A7C001B68D3F89030019308BD0000A401060850
:100A8C0008B5034B1B68D3F89C30019308BD0000DC
:100A9C00A401060808B5024B1B685B68019308BDEE
:100AAC00C801060808B5024B1B689B68019308BD7A
:100ABC00C801060808B5024B1B68DB68019308BD2A
:100ACC00C801060808B5024B1B681B69019308BDD9
:100ADC00C801060808B5024B1B685B69019308BD89
:100AEC00C801060808B5024B1B689B69019308BD39
:100AFC00C801060808B5024B1B68DB69019308BDE9
:100B0C00C801060808B5024B1B681B6A019308BD97
:100B1C00C801060808B5024B1B681B6B019308BD86
:100B2C00C801060808B5024B1B685B6B019308BD36
:100B3C00C801060808B5024B1B685B69019308BD28
:100B4C00CC01060808B5024B1B681B6A019308BD53
:100B5C00CC01060808B5024B1B68DB6B019308BD82
:100B6C00CC01060808B5024B1B681B68019308BD35
:100B7C00A001060808B5024B1B685B68019308BD11
:100B8C00A001060808B5024B1B689B68019308BDC1
:100B9C00A001060808B5024B1B685B6A019308BDEF
:100BAC00A001060808B5024B1B68DB6A019308BD5F
:100BBC00A001060808B5024B1B681B6B019308BD0E
:100BCC00A0010608704710B50446102101F02FF95A
:100BDC00204610BD70B504460E46074B0025036039
:100BEC0040F80C5FFFF738FE30462671FFF70CFE1D
:100BFC00A560204670BD00BF54310A080079FFF78C
:100C0C000BBE00004FF6FF72034B0020187058808B
:100C1C009A80FFF703BF00BF9400002010B5044674
:100C2C000068FFF7A7FF204610BD10B5044600680A
:100C3C0008B1FFF79FFF00232360A360636010BD22
:100C4C0038B504460D4600680131FFF79BFF10B123
:100C5C0084E82100012038BD10B50368044613B1A7
:100C6C0043688B4207D22046FFF7EAFF20B1A36806
:100C7C000BB922681370012010BD70B50E461146D9
:100C8C0004461546FFF7E8FF18B92046FFF7CDFFDD
:100C9C0009E02A463146A560206802F0A7F92268CF
:100CAC00A3680021D154204670BD38B500230446FA
:100CBC0003604360836003730D4639B1084602F04C
:100CCC00ECF9294602462046FFF7D7FF204638BDEF
:100CDC000EB4FFB509AC54F8047B054623463A46DE
:100CEC00052102A80194FFF755FF06460B4928463B
:100CFC00FFF7DBFF31462846FFF7AEFF286830B11F
:100D0C0023463A46711C0194FFF744FFA86028461D
:100D1C0004B0BDE8F04003B0704700BF14320A08BD
:100D2C00F8B506460D468F180024BD420CD033682A
:100D3C0015F8011B9B6830469847002801DB0444DA
:100D4C00F3E7002C08BF04462046F8BD70B50546F5
:100D5C000C46084649B102F0A0F92B680246214620
:100D6C002846BDE87040DB68184770BD08B5FFF732
:100D7C00EDFF08BD03689B681847012A98BF0A223B
:100D8C0030B50B468BB000218DF824100DF12304E7
:100D9C00B3FBF2F505FB1233DBB2092B94BF3033F6
:100DAC003733DBB2214604F801392B46002DEFD145
:100DBC00FFF7CCFF0BB030BD10B422B90368C9B239
:100DCC009B6810BC1847D2B210BCFFF7D6BFFFF718
:100DDC00F3BF2DE9F04107460E4615462AB9BDE88A
:100DEC00F0410368C9B29B6818470A2A02D100294E
:100DFC0001DA04E0D2B2BDE8F041FFF7BEBF2D210D
:100E0C00FFF7B8FF2A46044671423846FFF7B5FF94
:100E1C002044BDE8F08100002DE9F84319468046D6
:100E2C00104617461E469DF8205001F09FFD08B154
:100E3C00474912E026F000444FF0FF32454B38464C
:100E4C00214601F093FD68B94FF0FF32414B384613
:100E5C00214601F06DFD28B93F494046FFF776FF6A
:100E6C00BDE8F8834FF060423C4B3846314601F008
:100E7C0073FD08B13A49F0E74FF06042394B384600
:100E8C00314601F04BFD0028F4D1002200233846F6
:100E9C00314601F043FD38B12D214046FFF76AFF82
:100EAC0006F10046044600E004462F494FF00009C5
:100EBC0000205FFA89F39D4206D900222B4B01F0EA
:100ECC00E5FB09F10109F4E73A46334601F002F972
:100EDC000F46064601F088FD0A220146814640462F
:100EEC00FFF74BFF04447DB3484601F02FFA02464E
:100EFC000B463046394601F0EBF806460F464046A5
:100F0C001B49FFF723FF0444184B00223046394697
:100F1C0001F092FA0F46064601F03EFD0A22014608
:100F2C0081464046FFF755FF0444484601F01EFA3F
:100F3C0002460B463046394601F0CAF8013D15F021
:100F4C00FF0506460F46DFD12046BDE8F88300BFFB
:100F5C005C310A08FFFFEF7F66310A08FFFFEF41A3
:100F6C0060310A08FFFFEFC10000E03F00002440A1
:100F7C0064310A089DF800100091FFF74DBF002363
:100F8C001A4619464068FFF7A5BD0B68036013B1FC
:100F9C005A6801325A607047014A024B1A60704716
:100FAC00E0310A089C000020024B1A68024B1A60C0
:100FBC00704700BF00000020A00000200021FFF7B8
:100FCC0035BD10B58368044613B10322014698471A
:100FDC00204610BD10B50446FFF7F3FF204610BDA8
:100FEC0013B50B46044603C88DE8030093E80300D1
:100FFC0084E803009DE8030083E8030002B010BD01
:10100C00034800238360034A034900F00BBF00BF71
:10101C00A400002068000020E10F0A0808B5144B5A
:10102C0033B100F02BFC03681B699847002816DCD1
:10103C00104B33B100F0E4FC03681B69984700289F
:10104C0010DC0D4B0BB1AFF300800C4B7BB100F0FF
:10105C0051FC03681B699847002806DC08BDAFF3F8
:10106C000080E5E7AFF30080EBE7AFF3008008BD4D
:10107C000000000000000000000000000000000064
:10108C0008B5FFF7CBFFFFF7DFFB014B186008BD7E
:10109C00480500200248034A0349121A01F0A6BF72
:1010AC00004002400440024040340A0807B50023C7
:1010BC0000931A466FF07701FFF7E2FC03B05DF87E
:1010CC0004FB000007B543880A2B08D0502B09D12C
:1010DC00094B1B683BB103B05DF804EB1847FFF7F5
:1010EC00E5FF06E0002300931A466FF07701FFF747
:1010FC00C7FC03B05DF804FBB400002038B5104CFD
:10110C00104D2368AB42104B0CBF012200221A7009
:10111C0002D0FFF7BFFF2560FFF786FB044601F006
:10112C0079FF0A4B13B12046AFF30080002107482A
:10113C00FFF710FDBDE8384000210548FFF796BCCD
:10114C00004002401E1C279AB8000020000000003E
:10115C00D1100A0870470020704710B504461021C2
:10116C0000F065FE204610BD08B508B1FFF7F5FF8D
:10117C0008BD002202604FF69C72828010B5B1F956
:10118C00044084808A8002680C6804600A6010BD88
:10119C0010B504460068FFF7EDFC204610BD38B5CD
:1011AC00C468F4B12378022B03D104F10C00FFF7CF
:1011BC00EFFF656835B12846FFF703FF102128467D
:1011CC0000F035FEA56835B12846FFF7FAFE102170
:1011DC00284600F02CFE2046BDE83840142100F0D3
:1011EC0026BE38BD13B5044691E8050000234B60BC
:1011FC000B602060626001A801930093FFF722F856
:10120C00204602B010BDF7B50C4606460F4654F802
:10121C00043B02AD45F8083D214601A8FFF7B5FE99
:10122C0029463046FFF7DEFF01A8FFF70BF82046F2
:10123C00FFF708F83846082100F0F9FD304603B0F6
:10124C00F0BD000038B500230446036010200D46A5
:10125C00FEF71DFF28B1012343608360024BC5607C
:10126C0003602060204638BD80320A08826810B5C1
:10127C000AB900F0DEFDC368BDE81040184708B598
:10128C00006800F11001FFF7F1FF08BD826810B58E
:10129C000AB900F0CEFDC368BDE81040184708B588
:1012AC00006800F11001FFF7F1FF08BD38B500230D
:1012BC0083608B6804460D462BB102229847EB687D
:1012CC00E360AB68A360204638BD0000F0B589B080
:1012DC0004686846FFF74DFF4FF0020200238DF8BB
:1012EC000830D4E84F3F002B03D1C4E8412F00292C
:1012FC00F7D102D08DF8083063E014F10C0503D05F
:10130C0069462846FFF735FFBFF35F8F01236370F3
:10131C00BFF35F8F04F10803002053E8006F43E82C
:10132C000002002AF9D1BFF35F8F002E49D0FFF7DE
:10133C008DFB20B129463046FFF798FF3AE0314645
:10134C0002A8FFF7B3FFE068B4F9105008B101F040
:10135C0089FE06901020ADF81C50FEF798FE05464D
:10136C00E8B1002787601820FEF791FE044688B18B
:10137C000146876002A8FFF733FE049BA268A360B6
:10138C00059B0492E26806A9E36004F11000059243
:10139C00FFF7EFFE0D4B2C60EB600D4BAB6006A81E
:1013AC00FFF7F6FE02A8FFF70CFE002229460948BB
:1013BC00FFF754FB3046FFF704FE1021304600F0D7
:1013CC0036FD6846FFF7E4FE09B0F0BD8B120A0843
:1013DC0001150A08591A0A082DE9F04F8BB0064678
:1013EC000F46904699469DF850A0FFF7A3FB07AD1A
:1013FC00834630BB4FF62E73059005A92846ADF8F1
:10140C001830FFF7B6FE1420FEF741FE044658B123
:10141C000223037001234370C0F804B0C0F808B075
:10142C0029460C30FFF7A5FE3046214640F8044B08
:10143C00FFF708FF2846FFF7ABFE05A8FFF7A8FE4D
:10144C0052E000240C2314206C60AC600793FEF770
:10145C001EFE014618B1047044704460846004A8F8
:10146C000391FFF7EFFE224B08200893FEF70FFEC7
:10147C00044628B1039B04A940F8043BFFF785FD03
:10148C0000955FFA8AF34A46414638460994FFF7BD
:10149C0059FB20B9039B5B7803F0FF0283B1039BDC
:1014AC0004A906A80593FFF770FD05A93046FFF7C0
:1014BC0099FE06A8FEF7C6FE04A8FEF7C3FE13E0CD
:1014CC004FF69C7305A903A80592ADF81830FFF7E9
:1014DC00FDFE05A8FFF75CFE05A80999FFF793FE32
:1014EC0006A8FEF7AFFEDAE730460BB0BDE8F08F8A
:1014FC0071160A08022AF8B5044606D0032A17D03A
:10150C00012A22D10B6803601FE018200E68FEF739
:10151C00BEFD054650B13146FFF7C8FE3069B6F93D
:10152C00147008B101F09EFD2861AF8225600CE0BB
:10153C00046854B104F11000FFF72AFE2046FFF7AF
:10154C0040FD1821204600F072FC0020F8BD38B593
:10155C00002383608B6804460D462BB1022298470A
:10156C00EB68E360AB68A360204638BD022A70B517
:10157C00044606D0032A11D0012A18D10B68036047
:10158C0015E014200E68FEF782FD054620B13146A9
:10159C00FFF7DDFF337C2B74256008E0046834B161
:1015AC002046FFF70EFD1421204600F040FC0020E1
:1015BC0070BD0000F0B50C46BFF35F8F87B0002301
:1015CC0050E8006F40E80032002AF9D1BFF35F8F7A
:1015DC00002E3FD01846FFF739FA074620B12146B6
:1015EC003046FFF753FE2EE0314601A8FFF7AFFF60
:1015FC00237810208DF81430FEF749FD0546D0B144
:10160C0087601420FEF743FD044678B187600146DD
:10161C0001A8FFF7E5FC039BA268A360049B03925F
:10162C00E268E3609DF81430049223740A4B2C603A
:10163C00EB600A4BAB6001A8FFF7C3FC0022294604
:10164C000748FFF70BFA3046FFF7BBFC102130467A
:10165C0000F0EDFB07B0F0BDAB120A0879150A08D3
:10166C00591A0A0830B5044685B00D46684611462D
:10167C00FFF7C9FD7CB124B228460DB101F0F2FC94
:10168C00029002A96846ADF80C40FFF71FFE02A8B5
:10169C00FFF77EFD1DE04FF0010200988DF8084029
:1016AC00D0E84F3FA34203D1C0E8412F0029F7D126
:1016BC0002D08DF808300CE010F10C014FF0010352
:1016CC0018BF0373BFF35F8F043000F8033CFFF7C0
:1016DC0071FF01A8FEF7B6FD05B030BD704710B51F
:1016EC000446182100F0A3FB204610BDF8B50F46A8
:1016FC0000F10806051D002416F8011D0A223846C3
:10170C00FFF765FBAE42044407D0002CF4D02E2129
:10171C003846FFF72FFB0444EEE72046F8BD0000E7
:10172C0010B50446044B112240F8043B002101F093
:10173C0068FC204610BD00BF9C320A080346074ACD
:10174C0010B543F8042B01F1100251F8044B9142EF
:10175C0043F8044BF9D10A781A7010BD9C320A0870
:10176C00024A416002600422027570479C320A08EA
:10177C0010B59DF8084044EA032343EA024242EACA
:10178C00016104234160037510BD000037B5044DA1
:10179C0005609DF818500095FFF7EAFF03B030BDC7
:1017AC009C320A0841747047704708B50021007CD0
:1017BC00FFF714F930EA200028BF4FF0FF3008BDC6
:1017CC0008B50121007CFFF709F930EA200028BF99
:1017DC004FF0FF3008BD08B5007CFFF7F7F820EAA2
:1017EC00E07008BD08B5007CFFF7E8F820EAE0706F
:1017FC0008BD007CFFF702B910B50446142100F0B7
:10180C0016FB204610BD38B50446007C0D46FFF78C
:10181C00DDF8002801DC607C28B12946207CFFF72C
:10182C00E5F820EAE07038BD10B50446002363608B
:10183C004FF47A73A360054B08462360012321748F
:10184C0063741146FFF7B2F8204610BDB0320A0897
:10185C0010B504461422002101F0D3FB054B2046A1
:10186C006360054BE36040F20113238181232382E3
:10187C0010BD00BF41010020C000002030B50E4D4E
:10188C0087B001A8FFF7E4FF296811F0010410D11B
:10189C002846FEF700FC60B101AA21460748FFF775
:1018AC00C3FF2846FEF7FCFB054A0649034800F037
:1018BC00B9FA024807B030BDBC0000204402002039
:1018CC0068000020B5170A0810B504461422002140
:1018DC0001F097FB054B20466360054BE36040F23B
:1018EC00011323818123238210BD00BFF402002049
:1018FC005C02002010B50E4C86B001A8FFF7E4FF87
:10190C002368DB0710D42046FEF7C5FB60B101AAA3
:10191C0001210848FFF788FF2046FEF7C1FB064A65
:10192C000649044800F07EFA024806B010BD00BF1C
:10193C0058020020E002002068000020B5170A08B9
:10194C00FEF75ABFFEF750BF70474174704708B599
:10195C00007CFEF7C1FF20EAE07008BD08B5007CF2
:10196C00FEF792FF20EAE07008BD08B5007CFEF798
:10197C009BFF30EA200028BF4FF0FF3008BD08B5B0
:10198C00007CFEF789FF30EA200028BF4FF0FF30C3
:10199C0008BD007CFEF790BF10B50446142100F082
:1019AC0046FA204610BD70B5457C04460E4625B956
:1019BC00007CFEF791FF002805DD3146207CBDE858
:1019CC007040FEF759BF284670BD000010B50446A4
:1019DC0008461146002262604FF47A72A260054AF2
:1019EC0020742260012262741A46FEF73DFF2046E5
:1019FC0010BD00BFE0320A08007CFEF765BF000096
:101A0C0038B50C4D296811F0010411D12846FEF7A8
:101A1C0042FB68B1084A2146084B0948FFF7D6FF3C
:101A2C002846FEF73DFB074A0749054800F0FAF93E
:101A3C00034838BD90040020940400200C040020BE
:101A4C00F80300206800002055190A0810B58368B7
:101A5C0004460BB900F0EDF9C3689847A3681BB1B5
:101A6C0003222146204698472046BDE8104010210D
:101A7C0000F0DDB97047F8B5064615460C468F18D0
:101A8C00BC4206D0336814F8011B9B68304698475B
:101A9C00F6E72846F8BD0022007CFEF74DBF00217A
:101AAC00007CFEF751BF0021007CFEF755BF0021E2
:101ABC00007CFEF759BF0021007CFEF75DBF10B51E
:101ACC000446142100F0B3F9204610BD10B50446AD
:101ADC0008464FF47A73A360044B002120746160B4
:101AEC002360FEF759FF204610BD00BF10330A08D3
:101AFC000022007CFEF7F8BE0022007CFEF7FCBE44
:101B0C0000231A461946007CFEF7FEBE0022007C1C
:101B1C00FEF702BF0022007CFEF706BF0121FFF793
:101B2C00F9BF0021007CFEF72FBF00221146406850
:101B3C00FEF7C8BFF0B5164689B011220F46044611
:101B4C00002103A801F05DFA304601F0A6FA002549
:101B5C00009581B27B6803AA3046FEF757FF20B18F
:101B6C0029462046FFF7FCFD03E003A92046FFF7BA
:101B7C00E5FD204609B0F0BD002211464068FEF795
:101B8C00C1BF002211464068FEF7CCBF002240685E
:101B9C00FEF7C0BF002281F001014068FEF7AABF2A
:101BAC0000231A4619464068FEF79CBF00221146D6
:101BBC004068FEF777BF002202214068FEF77ABF2B
:101BCC0000231A464068FEF765BF0000024B042252
:101BDC005A60024A1A6070471805002038330A0808
:101BEC0000231A464068FEF755BF002202214068C8
:101BFC00FEF760BF002211464068FEF753BF00227B
:101C0C0011464068FEF75EBF00231A46194640682D
:101C1C00FEF760BF00231A4619464068FEF762BF04
:101C2C00002281F001014068FEF764BF0022406889
:101C3C00FEF770BF002211464068FEF773BF00220A
:101C4C0011464068FEF75EBF70B516468EB004466E
:101C5C0008A8FFF765FD1122002103A801F0D1F9B6
:101C6C00304601F01AFA00250A4B009581B25B68E8
:101C7C0003AA3046FEF7CAFE20B129462046FFF7DC
:101C8C006FFD03E003A92046FFF758FD20460EB078
:101C9C0070BD00BF18050020024B034A1A600022D9
:101CAC005A607047200500206C330A0810B50446B2
:101CBC000F48FEF7A3FF28B1A4F10D03022B01D8A6
:101CCC00002010BD00F08EF8FFF72BFF08B1012C9F
:101CDC00F6D9FFF795FEFFF78FFE18B1A4F11203AA
:101CEC00012BEDD9172C8CBF0020012010BD00BF9B
:101CFC0028050020172838B504460D460AD8FF29B8
:101D0C0008D0FFF7D3FF28B129462046BDE838405C
:101D1C00FEF74ABD38BD38B504460D46FEF74CFDFE
:101D2C00FF2810D0062804D84D2323FA00F0C3074F
:101D3C0009D42046FFF7BAFF28B129462046BDE852
:101D4C003840FEF741BD38BD10B50446FEF734FDF2
:101D5C000438C0B2012808D92046FFF7A7FF20B1EC
:101D6C002046BDE81040FEF737BD002010BD000036
:101D7C0070B50C4C0C4E0D4D00212046FEF72AFF81
:101D8C0020460B4C3246294600F04CF801212046E7
:101D9C00FEF720FF324629462046BDE8704000F091
:101DAC0041B800BF2805002068000020D10B0A08AC
:101DBC003805002013B5084C00231A461946009329
:101DCC002046FFF7E3FC2046044A054902B0BDE873
:101DDC00104000F027B800BF4C0500206800002020
:101DEC00E9160A0838B50B4D296811F001040FD11A
:101DFC002846FEF750F958B121460748FFF766FE12
:101E0C002846FEF74DF9054A0549034800F00AF843
:101E1C00014838BD640500206805002068000020DA
:101E2C00811A0A080B460146184601F0D1B8FEF794
:101E3C0030B908B5FEF7B6FE184B1A68D1075CBF6F
:101E4C0001221A60164B1A68D2075CBF01221A6075
:101E5C00144B1A68D0075CBF01221A60124B1A6827
:101E6C00D1075CBF01221A60104B1A68D2075CBF05
:101E7C0001221A600E4B1A68D0075CBF01221A604F
:101E8C000C4B1A68D1075CBF01221A600A4B1A6806
:101E9C00D2075CBF01221A60704700BF9805002072
:101EAC0094050020900500208C050020880500205A
:101EBC0084050020800500207C050020244B1A6836
:101ECC00D0075CBF01221A60224B1A68D1075CBF95
:101EDC0001221A60204B1A68D2075CBF01221A60DB
:101EEC001E4B1A68D0075CBF01221A601C4B1A6883
:101EFC00D1075CBF01221A601A4B1A68D2075CBF6B
:101F0C0001221A60184B1A68D0075CBF01221A60B4
:101F1C00164B1A68D1075CBF01221A60144B1A6861
:101F2C00D2075CBF01221A60124B1A68D0075CBF43
:101F3C0001221A60104B1A68D1075CBF01221A608B
:101F4C000E4B1A68D2075CBF01221A60704700BFA3
:101F5C00C8050020C4050020C0050020BC050020D9
:101F6C00B8050020B4050020B0050020AC05002009
:101F7C00A8050020A4050020A00500209C05002039
:101F8C00244B1A68D0075CBF01221A60224B1A68D6
:101F9C00D1075CBF01221A60204B1A68D2075CBFC4
:101FAC0001221A601E4B1A68D0075CBF01221A600E
:101FBC001C4B1A68D1075CBF01221A601A4B1A68B5
:101FCC00D2075CBF01221A60184B1A68D0075CBF9D
:101FDC0001221A60164B1A68D1075CBF01221A60E5
:101FEC00144B1A68D2075CBF01221A60124B1A6894
:101FFC00D0075CBF01221A60104B1A68D1075CBF76
:10200C0001221A600E4B1A68D2075CBF01221A60BB
:10201C00704700BFF8050020F4050020F0050020F3
:10202C00EC050020E8050020E4050020E005002078
:10203C00DC050020D8050020D4050020D0050020A8
:10204C00CC050020184B1A68D1075CBF01221A601E
:10205C00164B1A68D2075CBF01221A60144B1A681F
:10206C00D0075CBF01221A60124B1A68D1075CBF03
:10207C0001221A60104B1A68D2075CBF01221A6049
:10208C000E4B1A68D0075CBF01221A600C4B1A6801
:10209C00D1075CBF01221A600A4B1A68D2075CBFD9
:1020AC0001221A60704700BF180600201406002099
:1020BC00100600200C060020080600200406002054
:1020CC0000060020FC05002081F0004102E000BF6A
:1020DC0083F0004330B54FEA41044FEA430594EADC
:1020EC00050F08BF90EA020F1FBF54EA000C55EA17
:1020FC00020C7FEA645C7FEA655C00F0E2804FEAE8
:10210C005454D4EB5555B8BF6D420CDD2C4480EAC9
:10211C00020281EA030382EA000083EA010180EAF9
:10212C00020281EA0303362D88BF30BD11F0004F47
:10213C004FEA01314FF4801C4CEA113102D040427D
:10214C0061EB410113F0004F4FEA03334CEA1333B8
:10215C0002D0524263EB430394EA050F00F0A780D0
:10216C00A4F10104D5F1200E0DDB02FA0EFC22FACB
:10217C0005F2801841F1000103FA0EF2801843FABF
:10218C0005F359410EE0A5F120050EF1200E012AB0
:10219C0003FA0EFC28BF4CF0020C43FA05F3C018EE
:1021AC0051EBE37101F0004507D54FF0000EDCF167
:1021BC00000C7EEB00006EEB0101B1F5801F1BD310
:1021CC00B1F5001F0CD349085FEA30004FEA3C0C14
:1021DC0004F101044FEA445212F5800F80F09A800A
:1021EC00BCF1004F08BF5FEA500C50F1000041EB0E
:1021FC00045141EA050130BD5FEA4C0C404141EB12
:10220C00010111F4801FA4F10104E9D191F0000F38
:10221C0004BF01460020B1FA81F308BF2033A3F1BB
:10222C000B03B3F120020CDA0C3208DD02F1140CB2
:10223C00C2F10C0201FA0CF021FA02F10CE002F1ED
:10224C001402D8BFC2F1200C01FA02F120FA0CFCE6
:10225C00DCBF41EA0C019040E41AA2BF01EB04512F
:10226C00294330BD6FEA04041F3C1CDA0C340EDC2D
:10227C0004F11404C4F1200220FA04F001FA02F370
:10228C0040EA030021FA04F345EA030130BDC4F12E
:10229C000C04C4F1200220FA02F001FA04F340EA23
:1022AC000300294630BD21FA04F0294630BD94F0D4
:1022BC00000F83F4801306BF81F480110134013DBB
:1022CC004EE77FEA645C18BF7FEA655C29D094EA2C
:1022DC00050F08BF90EA020F05D054EA000C04BFAA
:1022EC001946104630BD91EA030F1EBF0021002095
:1022FC0030BD5FEA545C05D14000494128BF41F034
:10230C00004130BD14F580043CBF01F5801130BD97
:10231C0001F0004545F0FE4141F470014FF0000022
:10232C0030BD7FEA645C1ABF194610467FEA655CD3
:10233C001CBF0B46024650EA013406BF52EA033575
:10234C0091EA030F41F4002130BD00BF90F0000F63
:10235C0004BF0021704730B54FF4806404F132049F
:10236C004FF000054FF0000150E700BF90F0000F58
:10237C0004BF0021704730B54FF4806404F132047F
:10238C0010F0004548BF40424FF000013EE700BF4F
:10239C0042004FEAE2014FEA31014FEA02701FBFDF
:1023AC0012F07F4393F07F4F81F06051704792F0B1
:1023BC00000F14BF93F07F4F704730B54FF460742B
:1023CC0001F0004521F0004120E700BF50EA010276
:1023DC0008BF704730B54FF000050AE050EA010223
:1023EC0008BF704730B511F0004502D5404261EB93
:1023FC0041014FF4806404F132045FEA915C3FF4D4
:10240C00DCAE4FF003025FEADC0C18BF03325FEA6C
:10241C00DC0C18BF033202EBDC02C2F1200300FA21
:10242C0003FC20FA02F001FA03FE40EA0E0021FA46
:10243C0002F11444C1E600BF70B54FF0FF0C4CF430
:10244C00E06C1CEA11541DBF1CEA135594EA0C0FE6
:10245C0095EA0C0F00F0DEF82C4481EA030621EA21
:10246C004C5123EA4C5350EA013518BF52EA03355C
:10247C0041F4801143F4801338D0A0FB02CE4FF00E
:10248C000005E1FB02E506F00042E0FB03E54FF03E
:10249C000006E1FB03569CF0000F18BF4EF0010E36
:1024AC00A4F1FF04B6F5007F64F5407404D25FEA32
:1024BC004E0E6D4146EB060642EAC62141EA5551E5
:1024CC004FEAC52040EA5E504FEACE2EB4F1FD0C27
:1024DC0088BFBCF5E06F1ED8BEF1004F08BF5FEAA5
:1024EC00500E50F1000041EB045170BD06F0004657
:1024FC0046EA010140EA020081EA0301B4EB5C0404
:10250C00C2BFD4EB0C0541EA045170BD41F48011FB
:10251C004FF0000E013C00F3AB8014F1360FDEBF20
:10252C00002001F0004170BDC4F10004203C35DAFC
:10253C000C341BDC04F11404C4F1200500FA05F37F
:10254C0020FA04F001FA05F240EA020001F0004220
:10255C0021F0004110EBD37021FA04F642EB060196
:10256C005EEA430E08BF20EAD37070BDC4F10C04C0
:10257C00C4F1200500FA04F320FA05F001FA04F284
:10258C0040EA020001F0004110EBD37041F1000170
:10259C005EEA430E08BF20EAD37070BDC4F120057B
:1025AC0000FA05F24EEA020E20FA04F301FA05F2E3
:1025BC0043EA020321FA04F001F0004121FA04F28B
:1025CC0020EA020000EBD3705EEA430E08BF20EA5B
:1025DC00D37070BD94F0000F0FD101F00046400095
:1025EC0041EB010111F4801F08BF013CF7D041EA17
:1025FC00060195F0000F18BF704703F0004652001B
:10260C0043EB030313F4801F08BF013DF7D043EAEB
:10261C000603704794EA0C0F0CEA135518BF95EAA1
:10262C000C0F0CD050EA410618BF52EA4306D1D128
:10263C0081EA030101F000414FF0000070BD50EA47
:10264C00410606BF1046194652EA430619D094EAD1
:10265C000C0F02D150EA013613D195EA0C0F05D1BB
:10266C0052EA03361CBF104619460AD181EA03010F
:10267C0001F0004141F0FE4141F470014FF00000C7
:10268C0070BD41F0FE4141F4780170BD70B54FF062
:10269C00FF0C4CF4E06C1CEA11541DBF1CEA1355E2
:1026AC0094EA0C0F95EA0C0F00F0A7F8A4EB0504C4
:1026BC0081EA030E52EA03354FEA013100F08880BB
:1026CC004FEA03334FF0805545EA131343EA126384
:1026DC004FEA022245EA111545EA10654FEA002639
:1026EC000EF000419D4208BF964244F1FD0404F5F2
:1026FC00407402D25B084FEA3202B61A65EB03054E
:10270C005B084FEA32024FF480104FF4002CB6EB0A
:10271C00020E75EB030E22BFB61A754640EA0C008A
:10272C005B084FEA3202B6EB020E75EB030E22BFCA
:10273C00B61A754640EA5C005B084FEA3202B6EB0B
:10274C00020E75EB030E22BFB61A754640EA9C00CA
:10275C005B084FEA3202B6EB020E75EB030E22BF9A
:10276C00B61A754640EADC0055EA060E18D04FEA58
:10277C00051545EA16754FEA06164FEAC30343EAF8
:10278C0052734FEAC2025FEA1C1CC0D111F4801FC5
:10279C000BD141EA00014FF000004FF0004CB6E7BE
:1027AC0011F4801F04BF01430020B4F1FD0C88BF5D
:1027BC00BCF5E06F3FF6AFAEB5EB030C04BFB6EB68
:1027CC00020C5FEA500C50F1000041EB045170BD5B
:1027DC000EF0004E4EEA113114EB5C04C2BFD4EB88
:1027EC000C0541EA045170BD41F480114FF0000E0C
:1027FC00013C90E645EA060E8DE60CEA135594EA88
:10280C000C0F08BF95EA0C0F3FF43BAF94EA0C0F8A
:10281C000AD150EA01347FF434AF95EA0C0F7FF4FF
:10282C0025AF104619462CE795EA0C0F06D152EA53
:10283C0003353FF4FDAE1046194622E750EA410637
:10284C0018BF52EA43067FF4C5AE50EA41047FF448
:10285C000DAF52EA43057FF4EBAE12E74FF0FF3CAD
:10286C0006E000BF4FF0010C02E000BF4FF0010C7E
:10287C004DF804CD4FEA410C7FEA6C5C4FEA430CF7
:10288C0018BF7FEA6C5C1BD001B050EA410C0CBF46
:10289C0052EA430C91EA030F02BF90EA020F0020A8
:1028AC00704710F1000F91EA030F58BF994208BF0F
:1028BC0090422CBFD8176FEAE37040F001007047CC
:1028CC004FEA410C7FEA6C5C02D150EA013C07D123
:1028DC004FEA430C7FEA6C5CD6D152EA033CD3D06E
:1028EC005DF8040B704700BF8446104662468C4668
:1028FC001946634600E000BF01B5FFF7B7FF00289B
:10290C0048BF10F1000F01BD4DF808EDFFF7F4FFC3
:10291C000CBF012000205DF808FB00BF4DF808ED4E
:10292C00FFF7EAFF34BF012000205DF808FB00BF71
:10293C004DF808EDFFF7E0FF94BF012000205DF893
:10294C0008FB00BF4DF808EDFFF7CEFF94BF012048
:10295C0000205DF808FB00BF4DF808EDFFF7C4FF41
:10296C0034BF012000205DF808FB00BF4FEA410C8A
:10297C007FEA6C5C02D150EA013C0AD14FEA430C6D
:10298C007FEA6C5C02D152EA033C02D14FF00000AA
:10299C0070474FF0010070474FEA410212F50012E8
:1029AC0015D211D56FF47873B3EB625212D94FEA8A
:1029BC00C12343F0004343EA505311F0004F23FA74
:1029CC0002F018BF404270474FF00000704750EAC9
:1029DC00013005D111F0004008BF6FF00040704786
:1029EC004FF00000704700BF4A0011D212F50012E0
:1029FC0011D20DD56FF47873B3EB62520ED44FEA4B
:102A0C00C12343F0004343EA505323FA02F07047CA
:102A1C004FF00000704750EA013002D14FF0FF3008
:102A2C0070474FF00000704780F0004002E000BF9C
:102A3C0081F0004142001FBF5FEA410392EA030F9D
:102A4C007FEA226C7FEA236C6AD04FEA1262D2EBE7
:102A5C001363C1BFD218414048404140B8BF5B42EC
:102A6C00192B88BF704710F0004F40F4000020F085
:102A7C007F4018BF404211F0004F41F4000121F09B
:102A8C007F4118BF494292EA030F3FD0A2F10102E5
:102A9C0041FA03FC10EB0C00C3F1200301FA03F123
:102AAC0000F0004302D5494260EB4000B0F5000F46
:102ABC0013D3B0F1807F06D340084FEA310102F105
:102ACC000102FE2A51D2B1F1004F40EBC25008BFB7
:102ADC0020F0010040EA03007047490040EB000081
:102AEC0010F4000FA2F10102EDD1B0FA80FCACF1B0
:102AFC00080CB2EB0C0200FA0CF0AABF00EBC250AF
:102B0C0052421843BCBFD0401843704792F0000F9C
:102B1C0081F4000106BF80F400000132013BB5E7EF
:102B2C004FEA41037FEA226C18BF7FEA236C21D065
:102B3C0092EA030F04D092F0000F08BF08467047CA
:102B4C0090EA010F1CBF0020704712F07F4F04D198
:102B5C00400028BF40F00040704712F100723CBFAB
:102B6C0000F50000704700F0004343F0FE4040F4D5
:102B7C00000070477FEA226216BF08467FEA236393
:102B8C000146420206BF5FEA412390EA010F40F47E
:102B9C00800070474FF0000304E000BF10F00043CA
:102BAC0048BF40425FEA000C08BF704743F09643B1
:102BBC0001464FF000001CE050EA010208BF7047CC
:102BCC004FF000030AE000BF50EA010208BF704753
:102BDC0011F0004302D5404261EB41015FEA010C68
:102BEC0002BF84460146002043F0B64308BFA3F160
:102BFC008053A3F50003BCFA8CF2083AA3EBC25342
:102C0C0010DB01FA02FC634400FA02FCC2F1200260
:102C1C00BCF1004F20FA02F243EB020008BF20F097
:102C2C000100704702F1200201FA02FCC2F12002FD
:102C3C0050EA4C0021FA02F243EB020008BF20EAF2
:102C4C00DC7070474FF0FF0C1CEAD0521EBF1CEA20
:102C5C00D15392EA0C0F93EA0C0F6FD01A4480EA0E
:102C6C00010C400218BF5FEA41211ED04FF00063F7
:102C7C0043EA501043EA5111A0FB01310CF0004023
:102C8C00B1F5000F3EBF490041EAD3715B0040EA49
:102C9C00010062F17F02FD2A1DD8B3F1004F40EB19
:102CAC00C25008BF20F00100704790F0000F0CF0EC
:102CBC00004C08BF49024CEA502040EA51207F3AB0
:102CCC00C2BFD2F1FF0340EAC250704740F400008B
:102CDC004FF00003013A5DDC12F1190FDCBF00F07C
:102CEC0000407047C2F10002410021FA02F1C2F12A
:102CFC00200200FA02FC5FEA310040F1000053EAC6
:102D0C004C0308BF20EADC70704792F0000F00F013
:102D1C00004C02BF400010F4000F013AF9D040EA19
:102D2C000C0093F0000F01F0004C02BF490011F4AD
:102D3C00000F013BF9D041EA0C018FE70CEAD153AB
:102D4C0092EA0C0F18BF93EA0C0F0AD030F0004C2B
:102D5C0018BF31F0004CD8D180EA010000F00040DF
:102D6C00704790F0000F17BF90F0004F084691F09D
:102D7C00000F91F0004F14D092EA0C0F01D14202D7
:102D8C000FD193EA0C0F03D14B0218BF084608D1A0
:102D9C0080EA010000F0004040F0FE4040F40000EA
:102DAC00704740F0FE4040F4400070474FF0FF0C7D
:102DBC001CEAD0521EBF1CEAD15392EA0C0F93EAC4
:102DCC000C0F69D0A2EB030280EA010C49024FEA16
:102DDC00402037D04FF0805343EA111143EA1013CF
:102DEC000CF000408B4238BF5B0042F17D024FF487
:102DFC00000C8B4224BF5B1A40EA0C00B3EB510F62
:102E0C0024BFA3EB510340EA5C00B3EB910F24BF4A
:102E1C00A3EB910340EA9C00B3EBD10F24BFA3EBCF
:102E2C00D10340EADC001B0118BF5FEA1C1CE0D197
:102E3C00FD2A3FF650AF8B4240EBC25008BF20F04A
:102E4C00010070470CF0004C4CEA50207F32C2BF9E
:102E5C00D2F1FF0340EAC250704740F400004FF03B
:102E6C000003013A37E792F0000F00F0004C02BF6C
:102E7C00400010F4000F013AF9D040EA0C0093F036
:102E8C00000F01F0004C02BF490011F4000F013B90
:102E9C00F9D041EA0C0195E70CEAD15392EA0C0FF8
:102EAC0008D142027FF47DAF93EA0C0F7FF470AF30
:102EBC00084676E793EA0C0F04D14B023FF44CAF73
:102ECC0008466EE730F0004C18BF31F0004CCAD108
:102EDC0030F000427FF45CAF31F000437FF43CAF44
:102EEC005FE700BF4FF0FF3C06E000BF4FF0010C66
:102EFC0002E000BF4FF0010C4DF804CD4FEA400248
:102F0C004FEA41037FEA226C18BF7FEA236C11D091
:102F1C0001B052EA530C18BF90EA010F58BFB2EB44
:102F2C00030088BFC81738BF6FEAE17018BF40F0C4
:102F3C00010070477FEA226C02D15FEA402C05D178
:102F4C007FEA236CE4D15FEA412CE1D05DF8040BFD
:102F5C00704700BF844608466146FFE70FB5FFF790
:102F6C00C9FF002848BF10F1000F0FBD4DF808ED48
:102F7C00FFF7F4FF0CBF012000205DF808FB00BF39
:102F8C004DF808EDFFF7EAFF34BF012000205DF893
:102F9C0008FB00BF4DF808EDFFF7E0FF94BF0120E0
:102FAC0000205DF808FB00BF4DF808EDFFF7D2FFDD
:102FBC0094BF012000205DF808FB00BF4DF808ED20
:102FCC00FFF7C8FF34BF012000205DF808FB00BFED
:102FDC0010B5054C13462CB10A4601460220AFF33E
:102FEC00008010BD204610BD0000000010B5431E2F
:102FFC000A44914204D011F8014B03F8014FF8E751
:10300C0010BD03460244934202D003F8011BFAE7B9
:10301C007047000038B5124B05461C68A36BD3B93A
:10302C001820FDF79FFD43F20E33A06303804AF690
:10303C00CD33438041F2342383804EF26D63C380E1
:10304C004DF6EC630381052343810B23838101221D
:10305C000023C0E90423A36B00221D615A6138BD13
:10306C0064000020024B0146186800F003B800BF52
:10307C006400002070B5064608460C4600F00DF8BA
:10308C00451C29463046FDF795FD064618B12A46E3
:10309C002146FFF7ABFF304670BD034613F8012BFA
:1030AC00002AFBD1181A0138704700001D000A08CD
:1030BC005D000A0889000A088D000A08000000005B
:1030CC002056656E74696C61746F7220436F6E74F8
:1030DC00726F6C0048756D69642020203A200025C1
:1030EC000054656D70202020203A200043656C0050
:1030FC0053502048756D69643A2000252E326600C5
:10310C0054656D70657261747572650048756D6992
:10311C0064697479000000000000000000000000E9
:10312C00B3000A0835030A0837060A082D0D0A08E9
:10313C0000000000400000001400000054000000DB
:10314C000000000000000000D10B0A08D30B0A0895
:10315C006E616E006F7666002E00696E66006261AD
:10316C0075640053657269616C0055534253657206
:10317C0069616C31007479706500706172616D0009
:10318C00636D6400696400686E64007374726D0032
:10319C0066696C74006C766C0061646448616E6482
:1031AC006C65720072656D6F766548616E646C65F6
:1031BC007200656E756D48616E646C657273004A61
:1031CC00534F4E53747265616D4C6F6748616E64FA
:1031DC006C65720061707000253031307520005DB7
:1031EC0020002564002C200028293A2000205B00B8
:1031FC00636F6465203D2000256900646574616916
:10320C006C73203D20000D0A006C6E00666E00632E
:10321C006F64650064657461696C006E6F6E650047
:10322C00747261636500696E666F007761726E001F
:10323C006572726F720070616E696300616C6C0014
:10324C005A00252B3033643A253032750025592D20
:10325C00256D2D25645425483A254D3A2553257A5C
:10326C000061736374696D6500000000000000006C
:10327C000000000061110A0867110A08AB110A0866
:10328C0075110A0863110A08000000000000000014
:10329C00F9160A08E9160A08EB160A0800000000DD
:1032AC0000000000B5170A0805180A0813180A08C8
:1032BC002D0D0A08F1170A08B7170A08CD170A08C6
:1032CC00FF170A08E3170A08B1170A0800000000E4
:1032DC000000000055190A08A5190A08B3190A08B4
:1032EC002D0D0A0869190A088B190A0877190A089A
:1032FC009F190A0857190A085B190A0800000000F0
:10330C0000000000811A0A08CB1A0A08A31A0A083E
:10331C00831A0A08AB1A0A08B31A0A08BB1A0A0855
:10332C00C31A0A080000000000000000CD1B0A08A8
:10333C00C31B0A08B91B0A08371B0A088B0F0A089B
:10334C00AD1B0A08A11B0A08991B0A088F1B0A0847
:10335C00851B0A08411B0A08000000000000000041
:10336C00ED1B0A08F71B0A08011C0A080B1C0A08AB
:10337C00151C0A08211C0A082D1C0A08391C0A08ED
:10338C00411C0A084B1C0A08551C0A0800000000C6
:10339C000000000000000000000000000000000021
:1033AC000000000000000000000000000000000011
:1033BC000000000000000000000000000000000001
:1033CC0000000000000000000000000000000000F1
:1033DC0000000000000000000000000000000000E1
:1033EC00000000000000000000000000430000008E
:1033FC0045030A0875050A08A1070A08110C0A08F2
:10340C00A50F0A08B50F0A080D100A08D91B0A08DF
:10341C00A51C0A087D1D0A08C11D0A08451E0A08BC
:10342C00C91E0A088D1F0A0851200A080000000056
:04343C00000000008C
:043440000000000088
:103444006D320A080000000098330A08B8330A08ED
:10345400D8330A080000000000000000000000004B
:1034640000000000F8330A0800000000000000001B
:103474000000000000000000000000000000000048
:103484000000000000000000000000000000000038
:103494000000000000000000000000000000000028
:0834A4000000000004000020FC
:1034AC00FFFFFFFF00000102030405060708090ADD
:1034BC000B0C0D0E0F101112131415161718191AD8
:0834CC001B1C1D1E1F2028001F
:0434D40078563412E0
:04000005080A001CC9
:00000001FF
